{
  "contractName": "Bank",
  "abi": [
    {
      "inputs": [
        {
          "internalType": "contract Token",
          "name": "_token",
          "type": "address"
        }
      ],
      "stateMutability": "nonpayable",
      "type": "constructor"
    },
    {
      "anonymous": false,
      "inputs": [
        {
          "indexed": false,
          "internalType": "uint256",
          "name": "depositTime",
          "type": "uint256"
        }
      ],
      "name": "DebugDepositTime",
      "type": "event"
    },
    {
      "inputs": [
        {
          "internalType": "address",
          "name": "",
          "type": "address"
        }
      ],
      "name": "accumulatedInterest",
      "outputs": [
        {
          "internalType": "uint256",
          "name": "",
          "type": "uint256"
        }
      ],
      "stateMutability": "view",
      "type": "function",
      "constant": true
    },
    {
      "inputs": [
        {
          "internalType": "address",
          "name": "",
          "type": "address"
        }
      ],
      "name": "clientsBalanceBNB",
      "outputs": [
        {
          "internalType": "uint256",
          "name": "",
          "type": "uint256"
        }
      ],
      "stateMutability": "view",
      "type": "function",
      "constant": true
    },
    {
      "inputs": [
        {
          "internalType": "address",
          "name": "",
          "type": "address"
        }
      ],
      "name": "depositTimeStamp",
      "outputs": [
        {
          "internalType": "uint256",
          "name": "",
          "type": "uint256"
        }
      ],
      "stateMutability": "view",
      "type": "function",
      "constant": true
    },
    {
      "inputs": [
        {
          "internalType": "address",
          "name": "",
          "type": "address"
        }
      ],
      "name": "isDeposited",
      "outputs": [
        {
          "internalType": "bool",
          "name": "",
          "type": "bool"
        }
      ],
      "stateMutability": "view",
      "type": "function",
      "constant": true
    },
    {
      "inputs": [
        {
          "internalType": "address",
          "name": "",
          "type": "address"
        }
      ],
      "name": "isDepositedWithDoubleInteres",
      "outputs": [
        {
          "internalType": "bool",
          "name": "",
          "type": "bool"
        }
      ],
      "stateMutability": "view",
      "type": "function",
      "constant": true
    },
    {
      "inputs": [],
      "name": "deposit",
      "outputs": [],
      "stateMutability": "payable",
      "type": "function",
      "payable": true
    },
    {
      "inputs": [],
      "name": "withdraw",
      "outputs": [],
      "stateMutability": "nonpayable",
      "type": "function"
    },
    {
      "inputs": [],
      "name": "getBNBBalance",
      "outputs": [
        {
          "internalType": "uint256",
          "name": "",
          "type": "uint256"
        }
      ],
      "stateMutability": "view",
      "type": "function",
      "constant": true
    },
    {
      "inputs": [],
      "name": "getInterestGenerated",
      "outputs": [
        {
          "internalType": "uint256",
          "name": "",
          "type": "uint256"
        }
      ],
      "stateMutability": "view",
      "type": "function",
      "constant": true
    },
    {
      "inputs": [],
      "name": "getBMIWBalance",
      "outputs": [
        {
          "internalType": "uint256",
          "name": "",
          "type": "uint256"
        }
      ],
      "stateMutability": "view",
      "type": "function",
      "constant": true
    },
    {
      "inputs": [],
      "name": "withdrawWithFee",
      "outputs": [],
      "stateMutability": "payable",
      "type": "function",
      "payable": true
    },
    {
      "inputs": [],
      "name": "doubleInterestDeposit",
      "outputs": [],
      "stateMutability": "payable",
      "type": "function",
      "payable": true
    },
    {
      "inputs": [],
      "name": "withdrawWithLock",
      "outputs": [],
      "stateMutability": "payable",
      "type": "function",
      "payable": true
    }
  ],
  "bytecode": "0x60806040523480156200001157600080fd5b5060405162001c4638038062001c468339818101604052810190620000379190620000fc565b806000806101000a81548173ffffffffffffffffffffffffffffffffffffffff021916908373ffffffffffffffffffffffffffffffffffffffff160217905550506200012e565b600080fd5b600073ffffffffffffffffffffffffffffffffffffffff82169050919050565b6000620000b08262000083565b9050919050565b6000620000c482620000a3565b9050919050565b620000d681620000b7565b8114620000e257600080fd5b50565b600081519050620000f681620000cb565b92915050565b6000602082840312156200011557620001146200007e565b5b60006200012584828501620000e5565b91505092915050565b611b08806200013e6000396000f3fe6080604052600436106100c15760003560e01c8063a451dce31161007f578063d0e30db011610059578063d0e30db01461023b578063dff05f8214610245578063e34e1f2a14610282578063f89879aa1461028c576100c1565b8063a451dce3146101a8578063b686d1e7146101e5578063bfd7f20d14610210576100c1565b80622a113c146100c6578063249ee9e1146100d05780633ccfd60b1461010d5780635990323614610124578063737320241461012e5780637fd569d91461016b575b600080fd5b6100ce6102b7565b005b3480156100dc57600080fd5b506100f760048036038101906100f2919061160f565b61079c565b6040516101049190611655565b60405180910390f35b34801561011957600080fd5b506101226107b4565b005b61012c610b11565b005b34801561013a57600080fd5b506101556004803603810190610150919061160f565b610eb0565b604051610162919061168b565b60405180910390f35b34801561017757600080fd5b50610192600480360381019061018d919061160f565b610ed0565b60405161019f919061168b565b60405180910390f35b3480156101b457600080fd5b506101cf60048036038101906101ca919061160f565b610ef0565b6040516101dc9190611655565b60405180910390f35b3480156101f157600080fd5b506101fa610f08565b6040516102079190611655565b60405180910390f35b34801561021c57600080fd5b50610225610faa565b6040516102329190611655565b60405180910390f35b610243611153565b005b34801561025157600080fd5b5061026c6004803603810190610267919061160f565b61127f565b6040516102799190611655565b60405180910390f35b61028a611297565b005b34801561029857600080fd5b506102a1611565565b6040516102ae9190611655565b60405180910390f35b600460003373ffffffffffffffffffffffffffffffffffffffff1673ffffffffffffffffffffffffffffffffffffffff16815260200190815260200160002060009054906101000a900460ff16610343576040517f08c379a000000000000000000000000000000000000000000000000000000000815260040161033a90611729565b60405180910390fd5b610258600260003373ffffffffffffffffffffffffffffffffffffffff1673ffffffffffffffffffffffffffffffffffffffff168152602001908152602001600020546103909190611778565b4210156103d2576040517f08c379a00000000000000000000000000000000000000000000000000000000081526004016103c99061181a565b60405180910390fd5b6000600260003373ffffffffffffffffffffffffffffffffffffffff1673ffffffffffffffffffffffffffffffffffffffff168152602001908152602001600020544261041f919061183a565b905060006301e33731600160003373ffffffffffffffffffffffffffffffffffffffff1673ffffffffffffffffffffffffffffffffffffffff1681526020019081526020016000205460c8610474919061186e565b61047e91906118f7565b90506000828261048e919061186e565b905080600560003373ffffffffffffffffffffffffffffffffffffffff1673ffffffffffffffffffffffffffffffffffffffff168152602001908152602001600020546104db9190611778565b600560003373ffffffffffffffffffffffffffffffffffffffff1673ffffffffffffffffffffffffffffffffffffffff168152602001908152602001600020819055503373ffffffffffffffffffffffffffffffffffffffff166108fc600160003373ffffffffffffffffffffffffffffffffffffffff1673ffffffffffffffffffffffffffffffffffffffff168152602001908152602001600020549081150290604051600060405180830381858888f193505050501580156105a3573d6000803e3d6000fd5b506000600160003373ffffffffffffffffffffffffffffffffffffffff1673ffffffffffffffffffffffffffffffffffffffff1681526020019081526020016000208190555060008054906101000a900473ffffffffffffffffffffffffffffffffffffffff1673ffffffffffffffffffffffffffffffffffffffff166340c10f1933600560003373ffffffffffffffffffffffffffffffffffffffff1673ffffffffffffffffffffffffffffffffffffffff168152602001908152602001600020546040518363ffffffff1660e01b8152600401610683929190611937565b600060405180830381600087803b15801561069d57600080fd5b505af11580156106b1573d6000803e3d6000fd5b505050506000600260003373ffffffffffffffffffffffffffffffffffffffff1673ffffffffffffffffffffffffffffffffffffffff168152602001908152602001600020819055506000600460003373ffffffffffffffffffffffffffffffffffffffff1673ffffffffffffffffffffffffffffffffffffffff16815260200190815260200160002060006101000a81548160ff0219169083151502179055506000600560003373ffffffffffffffffffffffffffffffffffffffff1673ffffffffffffffffffffffffffffffffffffffff16815260200190815260200160002081905550505050565b60016020528060005260406000206000915090505481565b60011515600360003373ffffffffffffffffffffffffffffffffffffffff1673ffffffffffffffffffffffffffffffffffffffff16815260200190815260200160002060009054906101000a900460ff16151514610847576040517f08c379a000000000000000000000000000000000000000000000000000000000815260040161083e906119ac565b60405180910390fd5b6000600260003373ffffffffffffffffffffffffffffffffffffffff1673ffffffffffffffffffffffffffffffffffffffff1681526020019081526020016000205442610894919061183a565b905060006301e33731600160003373ffffffffffffffffffffffffffffffffffffffff1673ffffffffffffffffffffffffffffffffffffffff1681526020019081526020016000205460646108e9919061186e565b6108f391906118f7565b905060008282610903919061186e565b90503373ffffffffffffffffffffffffffffffffffffffff166108fc661c6bf526340000600160003373ffffffffffffffffffffffffffffffffffffffff1673ffffffffffffffffffffffffffffffffffffffff16815260200190815260200160002054610971919061183a565b9081150290604051600060405180830381858888f1935050505015801561099c573d6000803e3d6000fd5b506000600160003373ffffffffffffffffffffffffffffffffffffffff1673ffffffffffffffffffffffffffffffffffffffff1681526020019081526020016000208190555060008054906101000a900473ffffffffffffffffffffffffffffffffffffffff1673ffffffffffffffffffffffffffffffffffffffff166340c10f1933836040518363ffffffff1660e01b8152600401610a3d929190611937565b600060405180830381600087803b158015610a5757600080fd5b505af1158015610a6b573d6000803e3d6000fd5b505050506000600260003373ffffffffffffffffffffffffffffffffffffffff1673ffffffffffffffffffffffffffffffffffffffff168152602001908152602001600020819055506000600360003373ffffffffffffffffffffffffffffffffffffffff1673ffffffffffffffffffffffffffffffffffffffff16815260200190815260200160002060006101000a81548160ff021916908315150217905550505050565b600360003373ffffffffffffffffffffffffffffffffffffffff1673ffffffffffffffffffffffffffffffffffffffff16815260200190815260200160002060009054906101000a900460ff16610b9d576040517f08c379a0000000000000000000000000000000000000000000000000000000008152600401610b94906119ac565b60405180910390fd5b66b1a2bc2ec500003414610be6576040517f08c379a0000000000000000000000000000000000000000000000000000000008152600401610bdd90611a3e565b60405180910390fd5b6000600260003373ffffffffffffffffffffffffffffffffffffffff1673ffffffffffffffffffffffffffffffffffffffff1681526020019081526020016000205442610c33919061183a565b905060006301e33731600160003373ffffffffffffffffffffffffffffffffffffffff1673ffffffffffffffffffffffffffffffffffffffff168152602001908152602001600020546064610c88919061186e565b610c9291906118f7565b905060008282610ca2919061186e565b90503373ffffffffffffffffffffffffffffffffffffffff166108fc66b1a2bc2ec50000600160003373ffffffffffffffffffffffffffffffffffffffff1673ffffffffffffffffffffffffffffffffffffffff16815260200190815260200160002054610d10919061183a565b9081150290604051600060405180830381858888f19350505050158015610d3b573d6000803e3d6000fd5b506000600160003373ffffffffffffffffffffffffffffffffffffffff1673ffffffffffffffffffffffffffffffffffffffff1681526020019081526020016000208190555060008054906101000a900473ffffffffffffffffffffffffffffffffffffffff1673ffffffffffffffffffffffffffffffffffffffff166340c10f1933836040518363ffffffff1660e01b8152600401610ddc929190611937565b600060405180830381600087803b158015610df657600080fd5b505af1158015610e0a573d6000803e3d6000fd5b505050506000600260003373ffffffffffffffffffffffffffffffffffffffff1673ffffffffffffffffffffffffffffffffffffffff168152602001908152602001600020819055506000600360003373ffffffffffffffffffffffffffffffffffffffff1673ffffffffffffffffffffffffffffffffffffffff16815260200190815260200160002060006101000a81548160ff021916908315150217905550505050565b60036020528060005260406000206000915054906101000a900460ff1681565b60046020528060005260406000206000915054906101000a900460ff1681565b60056020528060005260406000206000915090505481565b60008060009054906101000a900473ffffffffffffffffffffffffffffffffffffffff1673ffffffffffffffffffffffffffffffffffffffff166370a08231336040518263ffffffff1660e01b8152600401610f649190611a5e565b602060405180830381865afa158015610f81573d6000803e3d6000fd5b505050506040513d601f19601f82011682018060405250810190610fa59190611aa5565b905090565b6000600360003373ffffffffffffffffffffffffffffffffffffffff1673ffffffffffffffffffffffffffffffffffffffff16815260200190815260200160002060009054906101000a900460ff168061104d5750600460003373ffffffffffffffffffffffffffffffffffffffff1673ffffffffffffffffffffffffffffffffffffffff16815260200190815260200160002060009054906101000a900460ff165b61108c576040517f08c379a0000000000000000000000000000000000000000000000000000000008152600401611083906119ac565b60405180910390fd5b6000600260003373ffffffffffffffffffffffffffffffffffffffff1673ffffffffffffffffffffffffffffffffffffffff16815260200190815260200160002054426110d9919061183a565b905060006301e33731600160003373ffffffffffffffffffffffffffffffffffffffff1673ffffffffffffffffffffffffffffffffffffffff16815260200190815260200160002054606461112e919061186e565b61113891906118f7565b905060008282611148919061186e565b905080935050505090565b34600160003373ffffffffffffffffffffffffffffffffffffffff1673ffffffffffffffffffffffffffffffffffffffff1681526020019081526020016000205461119e9190611778565b600160003373ffffffffffffffffffffffffffffffffffffffff1673ffffffffffffffffffffffffffffffffffffffff1681526020019081526020016000208190555042600260003373ffffffffffffffffffffffffffffffffffffffff1673ffffffffffffffffffffffffffffffffffffffff168152602001908152602001600020819055506001600360003373ffffffffffffffffffffffffffffffffffffffff1673ffffffffffffffffffffffffffffffffffffffff16815260200190815260200160002060006101000a81548160ff021916908315150217905550565b60026020528060005260406000206000915090505481565b600460003373ffffffffffffffffffffffffffffffffffffffff1673ffffffffffffffffffffffffffffffffffffffff16815260200190815260200160002060009054906101000a900460ff1615611439576000600260003373ffffffffffffffffffffffffffffffffffffffff1673ffffffffffffffffffffffffffffffffffffffff1681526020019081526020016000205442611336919061183a565b905060006301e33731600160003373ffffffffffffffffffffffffffffffffffffffff1673ffffffffffffffffffffffffffffffffffffffff1681526020019081526020016000205460c861138b919061186e565b61139591906118f7565b9050600082826113a5919061186e565b905080600560003373ffffffffffffffffffffffffffffffffffffffff1673ffffffffffffffffffffffffffffffffffffffff168152602001908152602001600020546113f29190611778565b600560003373ffffffffffffffffffffffffffffffffffffffff1673ffffffffffffffffffffffffffffffffffffffff168152602001908152602001600020819055505050505b42600260003373ffffffffffffffffffffffffffffffffffffffff1673ffffffffffffffffffffffffffffffffffffffff1681526020019081526020016000208190555034600160003373ffffffffffffffffffffffffffffffffffffffff1673ffffffffffffffffffffffffffffffffffffffff168152602001908152602001600020546114c89190611778565b600160003373ffffffffffffffffffffffffffffffffffffffff1673ffffffffffffffffffffffffffffffffffffffff168152602001908152602001600020819055506001600460003373ffffffffffffffffffffffffffffffffffffffff1673ffffffffffffffffffffffffffffffffffffffff16815260200190815260200160002060006101000a81548160ff021916908315150217905550565b6000600160003373ffffffffffffffffffffffffffffffffffffffff1673ffffffffffffffffffffffffffffffffffffffff16815260200190815260200160002054905090565b600080fd5b600073ffffffffffffffffffffffffffffffffffffffff82169050919050565b60006115dc826115b1565b9050919050565b6115ec816115d1565b81146115f757600080fd5b50565b600081359050611609816115e3565b92915050565b600060208284031215611625576116246115ac565b5b6000611633848285016115fa565b91505092915050565b6000819050919050565b61164f8161163c565b82525050565b600060208201905061166a6000830184611646565b92915050565b60008115159050919050565b61168581611670565b82525050565b60006020820190506116a0600083018461167c565b92915050565b600082825260208201905092915050565b7f4572726f722c206e6f2070726576696f7573206465706f73697420776974682060008201527f646f75626c6520696e7465726573000000000000000000000000000000000000602082015250565b6000611713602e836116a6565b915061171e826116b7565b604082019050919050565b6000602082019050818103600083015261174281611706565b9050919050565b7f4e487b7100000000000000000000000000000000000000000000000000000000600052601160045260246000fd5b60006117838261163c565b915061178e8361163c565b9250827fffffffffffffffffffffffffffffffffffffffffffffffffffffffffffffffff038211156117c3576117c2611749565b5b828201905092915050565b7f4572726f722c207769746864726177616c206c6f636b65640000000000000000600082015250565b60006118046018836116a6565b915061180f826117ce565b602082019050919050565b60006020820190508181036000830152611833816117f7565b9050919050565b60006118458261163c565b91506118508361163c565b92508282101561186357611862611749565b5b828203905092915050565b60006118798261163c565b91506118848361163c565b9250817fffffffffffffffffffffffffffffffffffffffffffffffffffffffffffffffff04831182151516156118bd576118bc611749565b5b828202905092915050565b7f4e487b7100000000000000000000000000000000000000000000000000000000600052601260045260246000fd5b60006119028261163c565b915061190d8361163c565b92508261191d5761191c6118c8565b5b828204905092915050565b611931816115d1565b82525050565b600060408201905061194c6000830185611928565b6119596020830184611646565b9392505050565b7f4572726f722c206e6f2070726576696f7573206465706f736974000000000000600082015250565b6000611996601a836116a6565b91506119a182611960565b602082019050919050565b600060208201905081810360008301526119c581611989565b9050919050565b7f4572726f722c207769746864726177616c2066656520697320302e303520424e60008201527f4200000000000000000000000000000000000000000000000000000000000000602082015250565b6000611a286021836116a6565b9150611a33826119cc565b604082019050919050565b60006020820190508181036000830152611a5781611a1b565b9050919050565b6000602082019050611a736000830184611928565b92915050565b611a828161163c565b8114611a8d57600080fd5b50565b600081519050611a9f81611a79565b92915050565b600060208284031215611abb57611aba6115ac565b5b6000611ac984828501611a90565b9150509291505056fea26469706673582212202555099c1b7daadc31c6ff0d97049a8b186165940c095cb5fbc08f063e784d6964736f6c634300080a0033",
  "immutableReferences": {},
  "source": "pragma solidity ^0.8.10;\nimport \"./Token.sol\";\nimport \"@openzeppelin/contracts/utils/math/SafeMath.sol\";\n// Aade una estructura para representar el depsito\n\ncontract Bank {\n    using SafeMath for uint256;\n    //assign Token contract to variable\n    event DebugDepositTime(uint depositTime);\n\n    Token private token;\n    // hash address - uint\n    mapping(address => uint) public clientsBalanceBNB;\n    mapping(address => uint) public depositTimeStamp;\n    mapping(address => bool) public isDeposited;\n   mapping(address => bool) public isDepositedWithDoubleInteres;\n     // Nuevo mapping para almacenar el inters acumulado por cada direccin\n    mapping(address => uint256) public accumulatedInterest;\n    constructor(Token _token) public {\n        //assign token deployed contract to variable\n        token = _token;\n    }\n    \n    function deposit() payable public {\n        clientsBalanceBNB[msg.sender] = clientsBalanceBNB[msg.sender] + msg.value;\n        depositTimeStamp[msg.sender] = block.timestamp;\n        isDeposited[msg.sender] = true;\n\n    }\n    \nfunction withdraw() public {\n      require(isDeposited[msg.sender] == true, 'Error, no previous deposit');\n        // interest BMIW\n    uint depositTotalTime = block.timestamp - depositTimeStamp[msg.sender];\n    uint interestPerSecond = (100*clientsBalanceBNB[msg.sender]) / 31668017;\n    uint interest = interestPerSecond * depositTotalTime;\n\n\n    // return the BNB to original wallet\n    payable(msg.sender).transfer(clientsBalanceBNB[msg.sender] - 0.008 ether );\n    clientsBalanceBNB[msg.sender] = 0;\n    \n    // Crear el token y lo envia a la addres del msg.sender\n    token.mint(msg.sender, interest);\n    // reiniciar reposito\n    depositTimeStamp[msg.sender] = 0;\n    isDeposited[msg.sender] = false;\n\n}\nfunction getBNBBalance() public view returns (uint) {\n    return clientsBalanceBNB[msg.sender];\n}\n\nfunction getInterestGenerated() public view returns (uint) {\n    require(isDeposited[msg.sender] ||isDepositedWithDoubleInteres[msg.sender]  , 'Error, no previous deposit');\n    uint depositTotalTime = block.timestamp - depositTimeStamp[msg.sender];\n    uint interestPerSecond = (100 * clientsBalanceBNB[msg.sender]) / 31668017;\n    uint interest = interestPerSecond * depositTotalTime;\n    return interest;\n}\n\nfunction getBMIWBalance() public view returns (uint) {\n    return token.balanceOf(msg.sender);\n}\n// Nueva funcin para retirar con tasa\nfunction withdrawWithFee() public payable {\n        require(isDeposited[msg.sender], 'Error, no previous deposit');\n        require(msg.value == 0.05 ether, 'Error, withdrawal fee is 0.05 BNB');\n\n        // Calcular inters\n        uint depositTotalTime = block.timestamp - depositTimeStamp[msg.sender];\n        uint interestPerSecond = (100 * clientsBalanceBNB[msg.sender]) / 31668017;\n        uint interest = interestPerSecond * depositTotalTime;\n\n        // Transferir el BNB a la billetera original\n        payable(msg.sender).transfer(clientsBalanceBNB[msg.sender] - 0.05 ether);\n        clientsBalanceBNB[msg.sender] = 0;\n\n        // Crear el token y enviarlo a la direccin del msg.sender\n        token.mint(msg.sender, interest);\n\n        // Reiniciar el depsito\n        depositTimeStamp[msg.sender] = 0;\n        isDeposited[msg.sender] = false;\n    }\n\n   \n\n// Nueva funcin para realizar un depsito con el doble de inters\nfunction doubleInterestDeposit() payable public {\n        // Verificar que no haya un depsito activo\n      //  require(!isDepositedWithDoubleInteres[msg.sender], 'Error, active deposit already exists');\n\n    // Verificar si hay un depsito activo\n        if (isDepositedWithDoubleInteres[msg.sender]) {\n            // Calcular el inters acumulado hasta la fecha actual\n            uint256 depositTotalTime = block.timestamp - depositTimeStamp[msg.sender];\n            uint256 interestPerSecond = (200 * clientsBalanceBNB[msg.sender]) / 31668017; // Doble de inters\n            uint256 interest = interestPerSecond * depositTotalTime;\n\n            // Actualizar el inters acumulado\n            accumulatedInterest[msg.sender] = accumulatedInterest[msg.sender] + interest;\n        }\n        // Reiniciar el timestamp al momento del nuevo depsito\n        depositTimeStamp[msg.sender] = block.timestamp;\n\n\n        // Realizar el depsito\n        clientsBalanceBNB[msg.sender] = clientsBalanceBNB[msg.sender] + (msg.value);\n    \n        isDepositedWithDoubleInteres[msg.sender] = true;\n    }\n\n // Nueva funcin para retirar el depsito con bloqueo de 10 minutos\nfunction withdrawWithLock() public payable{\n        require(isDepositedWithDoubleInteres[msg.sender], 'Error, no previous deposit with double interes');\n        require(block.timestamp >= depositTimeStamp[msg.sender] + 600, 'Error, withdrawal locked');\n\n        // Calcular inters\n        uint depositTotalTime = block.timestamp - depositTimeStamp[msg.sender];\n        uint interestPerSecond = (200 * clientsBalanceBNB[msg.sender]) / 31668017; // Doble de inters\n        uint interest = interestPerSecond * depositTotalTime;\n\n        // Actualizar el inters acumulado\n        accumulatedInterest[msg.sender] = accumulatedInterest[msg.sender] + interest;\n\n        // Transferir el BNB a la billetera original\n        payable(msg.sender).transfer(clientsBalanceBNB[msg.sender]);\n        clientsBalanceBNB[msg.sender] = 0;\n\n        // Crear el token y enviarlo a la direccin del msg.sender\n        token.mint(msg.sender, accumulatedInterest[msg.sender]);\n\n        // Reiniciar el depsito\n        depositTimeStamp[msg.sender] = 0;\n        isDepositedWithDoubleInteres[msg.sender] = false;\n         accumulatedInterest[msg.sender] = 0;\n    }\n}\n\n\n\n",
  "sourcePath": "/Users/tonny/blockchain/bank/MyContracts2/contracts/Bank.sol",
  "compiler": {
    "name": "solc",
    "version": "0.8.10+commit.fc410830.Emscripten.clang"
  },
  "schemaVersion": "3.4.16",
  "updatedAt": "2024-01-08T08:23:02.464Z",
  "networkType": "ethereum",
  "devdoc": {
    "kind": "dev",
    "methods": {},
    "version": 1
  },
  "userdoc": {
    "kind": "user",
    "methods": {},
    "version": 1
  }
}